:100000000C943E000C9453000C9453000C94530039
:100010000C9453000C9453000C9453000C94530014
:100020000C9453000C9453000C9453000C94530004
:100030000C9453000C9453000C9453000C945300F4
:100040000C9453000C9453000C9453000C945300E4
:100050000C9453000C9453000C9453000C945300D4
:100060000C9453000C9453000C9453000C945300C4
:100070000C9453000C9453000C94530011241FBE95
:10008000CFEFD8E0DEBFCDBF11E0A0E0B1E0EEE3FE
:10009000FCE102C005900D92A035B107D9F70E948E
:1000A0005F0C0C941D0E0C9400000F931F93CF93C4
:1000B000DF930F92CDB7DEB7CE0101960E943607CF
:1000C00060E0CE0101960E943F078C01CE010196AF
:1000D0000E943C07C80196958795969587950F9045
:1000E000DF91CF911F910F91089589B190E0062E75
:1000F00002C0959587950A94E2F780FF1FC08FE1B3
:100100009EE40197F1F700C0000089B190E0062E4F
:1001100002C0959587950A94E2F780FF0DC021E013
:1001200030E002C0220F331F6A95E2F789B190E0F8
:1001300082239323892BD1F781E0089580E00895ED
:1001400088E090E0299A2FE33DE043E021503040E1
:100150004040E1F700C0000025B12C7F25B92FE316
:100160003DE043E0215030404040E1F700C0000056
:10017000019741F7089588E090E0289A2FE33DE049
:1001800043E0215030404040E1F700C0000025B17D
:100190002C7F25B92FE33DE043E021503040404023
:1001A000E1F700C00000019741F7089588E090E072
:1001B000289A2FE733E841E0215030404040E1F7F2
:1001C00000C00000299A2FE733E841E02150304079
:1001D0004040E1F700C0000025B12C7F25B92FE792
:1001E00033E143E0215030404040E1F700C00000DF
:1001F0000197F1F60895CF92DF92EF92FF921F934D
:10020000CF93DF93EC01162F7C0121E1E20EF11C6C
:10021000C7010E94DD0A6E018AE1C80ED11C612F60
:10022000C6010E94040C6D817E81412FCE01885948
:100230009F4F0E947D098FE097E20197F1F700C080
:1002400000009FEF29E688E1915020408040E1F7CF
:1002500000C00000C6010E940F0C62E3C7010E94AB
:100260009C0A8FE19EE40197F1F700C000008D81A8
:100270009E8101969E838D838F818F5F8F834FE058
:1002800062E3C7010E94300B9FE729EA83E09150A7
:1002900020408040E1F700C00000DF91CF911F9126
:1002A000FF90EF90DF90CF9008951F93CF93DF934F
:1002B000EC01162F41960E94DD0A612FCE014A966D
:1002C000DF91CF911F910C94040C60E08A599F4FED
:1002D0000E943F07969587959695879508950F9369
:1002E0001F93CF93DF93EC018C0107591F4F68E0F8
:1002F000C8010E94B5076196882399F068E2CE0193
:100300000E949C0A8FE097E20197F1F700C000007D
:100310004FE064E3CE01DF91CF911F910F910C94D8
:10032000300B64E0C8010E94B5078111E7CF60E29D
:10033000C8010E94B50781110EC060E8C8010E9483
:10034000B507811108C068E2CE01DF91CF911F91FE
:100350000F910C949C0A68E2CE010E949C0A8FE0E7
:1003600097E20197F1F700C000004CE36AE0D2CFBA
:100370000F931F93CF93DF93EC018C0107591F4F0D
:1003800068E0C8010E94B507882309F14FE062E3E5
:10039000CE0141960E94300B60E2C8010E94B50771
:1003A0008823E1F04CE164E1CE0141960E94300BDC
:1003B00060E1C8010E94B5078823B9F068E2CE0168
:1003C0004196DF91CF911F910F910C949C0A64E0AC
:1003D000C8010E94B5078111D9CFDECF60E8C801FE
:1003E0000E94B5078111DECFE3CFDF91CF911F913E
:1003F0000F9108950F931F93CF93DF93EC018C011E
:1004000007591F4F64E0C8010E94B507882331F0E7
:1004100040E06DE2CE0141960E94300B60E8C801D9
:100420000E94B507882331F048E260E0CE01419692
:100430000E94300B60E1C8010E94B507882349F093
:100440006EE1CE014196DF91CF911F910F910C94F7
:100450009C0ADF91CF911F910F9108950F931F93E5
:10046000CF93DF93EC018C010F5E1F4FC8010E94F8
:10047000DD0A2FEF83ED90E3215080409040E1F7BB
:1004800000C0000062E3C8010E94E90A2FE780EC87
:1004900094E1215080409040E1F700C0000048E224
:1004A0006AE0C8010E94800B2FEF88EF95E1215090
:1004B00080409040E1F700C000006AE5C8010E945A
:1004C000E90A2FE78EED9FE0215080409040E1F750
:1004D00000C00000C8010E94DD0A2FEF89E698E104
:1004E000215080409040E1F700C000006A9660E52E
:1004F000CE010E94040C2FEF89E698E12150804044
:100500009040E1F700C00000CE01DF91CF911F9134
:100510000F910C940F0CCF92DF92EF92FF920F93FA
:100520001F93CF93DF938C017C0121E1E20EF11C3C
:1005300042E369E3C7010E94300B8FEF94E32CE0A4
:10054000815090402040E1F700C00000C5E4D1E0B8
:10055000C8010E94B8012197D9F743E269E1C701B8
:100560000E94300B8FE79FE422E1815090402040B1
:10057000E1F700C00000D12CC12CE801C759DF4FC2
:1005800024E0C216D104CCF04AE062E3C7010E9425
:10059000300B8FEF91EE24E0815090402040E1F746
:1005A00000C0000064E0CE010E94B507882309F472
:1005B00040C0C8010E94B801F5CF60E8CE010E949A
:1005C000B5078823B9F04AE06DE2C7010E94300BFD
:1005D0008FEF9BE42DE1815090402040E1F700C077
:1005E000000064E0CE010E94B5078823D1F38FEFAD
:1005F000C81AD80A64E0CE010E94B507882309F41E
:10060000BFCF43E264E1C7010E94300B9FEF2BE4B0
:100610008DE1915020408040E1F700C0000060E88B
:10062000CE010E94B5078823D1F39FEFC91AD90ADA
:10063000A7CF68E0CE010E94B5078111BACF60E173
:10064000CE010E94B5078111B4CF60E2CE010E94B5
:10065000B5078111AECF60E8CE010E94B5078111C8
:10066000A8CFC801DF91CF911F910F91FF90EF901C
:10067000DF90CF900C942E020F931F93CF93DF93B4
:10068000D0E0C0E08C0108591F4F40E0BE01C80116
:100690000E947D098FE097E20197F1F700C000000A
:1006A0002196C436D10589F7DF91CF911F910F9123
:1006B0000895AF92BF92CF92DF92EF92FF920F9385
:1006C0001F93CF93DF93EC010E943C038E010F5EDA
:1006D0001F4F42E369E3C8010E94300B2FEF89E608
:1006E00098E1215080409040E1F700C000005E0199
:1006F00029E6A20EB11C7E018EE0E80EF11CC501B8
:100700000E94C307853069F4C801DF91CF911F9122
:100710000F91FF90EF90DF90CF90BF90AF900C942F
:10072000DD0ACE010E94B801CE010E946501893226
:10073000D0F5CE010E946501853678F1CE010E9488
:100740006501843B50F568E2C8010E949C0A8FEF66
:1007500091EE24E0815090402040E1F700C000007D
:10076000CE010E9465018536C0F0CE010E94650170
:10077000843B98F462E070E0C7010E946C0760E57A
:10078000CE010E94FB008AEFC82ED12CCE010E9420
:10079000B80181E0C81AD108C9F770E060E0C7016C
:1007A0000E946C07ACCFCE010E9465018A3508F02B
:1007B000C0CF68E2C8010E949C0A9FEF21EE84E04E
:1007C000915020408040E1F700C00000CE010E941F
:1007D0006501893200F5CE010E946501853608F475
:1007E000A8CFCE010E946501843B08F0A2CF62E051
:1007F00070E0C7010E946C0760E5CE010E94FB001B
:1008000098ECC92ED12CCE010E94B80121E0C21A69
:10081000D108C9F78ECFCE010E9465018A35D8F67E
:1008200061E070E0C7010E946C076DE2CE010E949A
:10083000FB0028ECC22ED12CCE010E94B80191E021
:10084000C91AD108C9F775CF0F931F93CF93DF93C0
:10085000EC018C010F5E1F4F62E3C8010E949C0AED
:100860002FEF81EE94E0215080409040E1F700C0EE
:100870000000C8010E94DD0A2FEF80E792E02150BE
:1008800080409040E1F700C0000040E062E3C80112
:100890000E94300B2FEF89E698E121508040904074
:1008A000E1F700C00000C759DF4F64E0CE010E94AD
:1008B000B50781110CC068E0CE010E94B507811117
:1008C00006C040E068E2C8010E94300BEECF4DE266
:1008D0006AE0C8010E94300B2FEF81EE94E02150B6
:1008E00080409040E1F700C00000DF91CF911F9160
:1008F0000F9108950F931F93CF93DF93EC018C0119
:100900000F5E1F4F4FE262E3C8010E94300B2FEFD2
:1009100081EE94E0215080409040E1F700C000005B
:10092000C8010E94DD0A2FEF80E792E0215080404D
:100930009040E1F700C000004DE260E0C8010E9475
:10094000300B2FEF89E698E1215080409040E1F78D
:1009500000C00000C759DF4F60E8CE010E94B50714
:10096000811112C060E2CE010E94B50781110CC056
:1009700060E1CE010E94B507811106C048E260E047
:10098000C8010E94300BE8CF4AE067E3C8010E942B
:10099000300B2FEF81EE94E0215080409040E1F742
:1009A00000C00000DF91CF911F910F9108958F92A9
:1009B0009F92AF92BF92CF92DF92EF92FF920F93EE
:1009C0001F93CF93DF9300D00F92CDB7DEB78C018A
:1009D0007C0128E6E20EF11CAE014D5F5F4F70E036
:1009E00060E0C7010E94B7088FE097E20197F1F736
:1009F00000C00000AE014E5F5F4F61E070E0C701D4
:100A00000E94B7088FE097E20197F1F700C000005D
:100A1000AE014F5F5F4F62E070E0C7010E94B70810
:100A20008FE097E20197F1F700C0000089818035DF
:100A300011F08D3219F49A818A83998380E07801CC
:100A400091E1E90EF11C680129E6C20ED11C811169
:100A5000FECF42E369E3C7010E94300B8FE79DE6BA
:100A60002DE0815090402040E1F700C00000B12C03
:100A7000A12CC6010E94E207882331F0C8010E9420
:100A800024048FEFA81AB80AC8010E94B80192E0A6
:100A9000A916B10471F7C6010E940008882309F461
:100AA0000AC1C7010E94DD0A2FEF84E39CE02150B8
:100AB00080409040E1F700C000008A814FE062E38F
:100AC0008D3211F04DE264E1C7010E94300B2FE737
:100AD0008FE492E1215080409040E1F700C0000097
:100AE0003CE2A32EBB24B394C8010E94FA0121E08A
:100AF000A21AB108C9F7C6010E94C307833008F4DF
:100B0000DEC062E3C7010E949C0A8FE798E321E000
:100B1000815090402040E1F700C0000024E6E22E22
:100B2000F12CC8010E94B80181E0E81AF108C9F768
:100B3000780191E1E90EF11CC7010E94DD0A2FEF57
:100B400084E39CE0215080409040E1F700C0000029
:100B5000898167018D3209F0B6C04DE260E0C701BE
:100B60000E94300B2FEF84E39CE0215080409040A6
:100B7000E1F700C00000C7010E94DD0A2FEF89E6FF
:100B800098E1215080409040E1F700C0000040E033
:100B900067E3C7010E94300B2FEF85EA9EE02150EA
:100BA00080409040E1F700C00000580129E6A20E05
:100BB000B11CC5010E9400084501882309F4B4C096
:100BC000C7010E94DD0AC6010E94DD0A8FEF94E38F
:100BD0002CE0815090402040E1F700C000007801F7
:100BE0008EE0E80EF11C8B818D3209F0A1C062E02D
:100BF00070E0C7010E946C074FE062E3C6010E94EB
:100C0000300B9FE72FE482E1915020408040E1F7D4
:100C100000C000009CE2A92EBB24B394C8010E942E
:100C2000FA0191E0A91AB108C9F78CE2A82EBB24F9
:100C3000B394C8010E94B80121E0A21AB108C9F713
:100C4000B12CA12CC4010E94F107882331F0C80106
:100C50000E947A048FEFA81AB80AC8010E94B8014E
:100C600092E0A916B10471F7C4010E94C307853050
:100C700009F066C062E070E0C7010E946C07C6011F
:100C80000E94DD0A2FEF89E698E1215080409040D4
:100C9000E1F700C000000F900F900F90DF91CF910F
:100CA0001F910F91FF90EF90DF90CF90BF90AF908A
:100CB0009F908F900895C8010E94B801ECCEC801A2
:100CC0000E94B80118CF8035E9F440E067E3C7011E
:100CD0000E94300B2FEF84E39CE021508040904035
:100CE000E1F700C00000C7010E94DD0A2FEF89E68E
:100CF00098E1215080409040E1F700C0000048E2B8
:100D000060E047CF4DE26CE3C7010E94800B2FE704
:100D10008FE492E1215080409040E1F700C0000054
:100D2000C7010E94DD0A41CFC8010E94B80141CF2E
:100D300061E070E0C7010E946C074DE264E15ECFA4
:100D4000C8010E94B80190CF0F931F93CF93DF93F8
:100D5000EC01888199818130910591F18230910572
:100D600009F457C0892BA1F48FE493EC0197F1F7B4
:100D700000C00000CE010E96182F092F60E0CE01B2
:100D80000E947500882349F081E090E09983888370
:100D9000DF91CF911F910F91089562E070E0812F54
:100DA000902F0E946C0762E0CE010E94750088239C
:100DB00029F3CE010E94A000CE010E945903DECF8C
:100DC0008FE493EC0197F1F700C00000CE010E967E
:100DD000182F092F60E0CE010E947500882319F0BA
:100DE00082E090E0D3CF61E070E0812F902F0E94ED
:100DF0006C0762E0CE010E947500882359F3CE0192
:100E00000E94BB00CE010E94D704CE010E948B023B
:100E1000E1CF8FE493EC0197F1F700C00000CE0121
:100E20000E96182F092F60E0CE010E9475008823CE
:100E300019F019821882ACCF63E070E0812F902FF7
:100E40000E946C0762E0CE010E947500882359F36E
:100E5000CE010E94D600CE010E948B02E4CFD82F93
:100E6000C92F8D2F9C2F0E94A406FBCF10927C00CF
:100E700086E880937A00089510927A000895809110
:100E80007C00807E80937C0080917C006770682B62
:100E900060937C0080917A00806480937A008091D6
:100EA0007A0084FFFCCF80917A00806180937A0081
:100EB000209178008091790090E0982F8827820F08
:100EC000911D0895FC01108281E0818382E082837C
:100ED00084B1836084B90895FC01CB01623071054F
:100EE00099F034F4892B41F06130710599F008953F
:100EF00063307105A9F0089585B18C7F85B985B1FE
:100F00009081892B85B9089585B18C7F85B985B18C
:100F10009281F7CF85B18C7F85B985B19181F1CF71
:100F200085B18C7F85B9828185B98FE19EE4019777
:100F3000F1F700C0000085B18C7F85B9818185B94A
:100F40008FE19EE40197F1F700C000000895982F0B
:100F500080B1E9E6F8E13197F1F700C0000080B117
:100F6000982381E009F480E00895862F90B1E9E6A6
:100F7000F8E13197F1F700C0000060B1682381E02B
:100F800009F480E00895EF92FF920F931F93CF939F
:100F9000DF93EC017C0185E0E80EF11C10E000E03D
:100FA00089910E94A707882311F00F5F1F4FCE156C
:100FB000DF05B1F7802FDF91CF911F910F91FF9047
:100FC000EF90089584E00E94A707882341F088E00D
:100FD0000E94A707882319F080E10C94A70780E0FE
:100FE000089580E10E94A707882341F080E20E94D3
:100FF000A707882319F080E80C94A70780E00895DC
:1010000088E00E94A707811121C084E00E94A70701
:10101000811128C080E10E94A70781112EC084E0C1
:101020000E94A707811134C084E00E94A70788238B
:10103000A9F188E00E94A707882381F180E20E943D
:10104000A707882359F180E80C94A70780E10E9444
:10105000A7078823D1F280E20E94A7078823A9F27C
:1010600081E0089588E00E94A707882399F280E133
:101070000E94A7078111F4CFCDCF80E20E94A7077D
:10108000882369F280E80E94A7078111E9CFC7CFC2
:1010900080E80E94A7078111E3CFC6CF80E00895C2
:1010A000CF9380E20E94A707811128C080E20E94AE
:1010B000A707882391F180E80E94A707882369F198
:1010C00084E00E94A707811128C088E00E94A7073A
:1010D000C82F811122C084E00E94A707811121C07E
:1010E00080E10E94A7078823C9F080E20E94A70739
:1010F0008823A1F080E8CF910C94A70780E80E9494
:10110000A707882399F284E00E94A7078111CECF18
:1011100088E00E94A7078111C9CFC1E08C2FCF9131
:10112000089588E00E94A7078823D1F280E10E94F9
:10113000A7078111F2CFD4CF089580EA80930001F0
:101140001092B90080E28093B8000895FC0180E815
:101150008083CF010C949D08982F9370891305C04C
:10116000880F806A8093000108958FEF0895FA0137
:1011700094EA24E89093BC008091BC0087FFFCCFE8
:10118000809100018093BB002093BC008091BC0043
:1011900087FFFCCF8091B900883161F784EA8093A2
:1011A000BC008091BC0087FFFCCF80910001809340
:1011B000BB0084E88093BC008091BC0087FFFCCF1B
:1011C0007093BB0084E88093BC008091BC0087FFD3
:1011D000FCCF6093BB0084E88093BC008091BC008E
:1011E00087FFFCCF8091BC0087FFFCCF84EA80930F
:1011F000BC008091BC0087FFFCCF809100018F5F15
:101200008093BB0084E88093BC008091BC0087FF82
:10121000FCCF84E88093BC008091BC0087FFFCCFAA
:101220008091BB00808384E98093BC0080E00895B6
:1012300094EA34E89093BC008091BC0087FFFCCF17
:10124000809100018093BB003093BC008091BC0072
:1012500087FFFCCF8091B900883161F784EA8093E1
:10126000BC008091BC0087FFFCCF8091000180937F
:10127000BB0084E88093BC008091BC0087FFFCCF5A
:101280007093BB0084E88093BC008091BC0087FF12
:10129000FCCF6093BB0084E88093BC008091BC00CD
:1012A00087FFFCCF84EA8093BC008091BC0087FF5D
:1012B000FCCF809100018F5F8093BB0084E8809316
:1012C000BC008091BC0087FFFCCF84EC211105C0DD
:1012D00084E98093BC0080E00895213009F484E81B
:1012E0008093BC009091BC0097FFFCCFFA019091D5
:1012F000BB0091932150AF01E9CF94EA24E8909389
:10130000BC008091BC0087FFFCCF809100018093DE
:10131000BB002093BC008091BC0087FFFCCF809174
:10132000B900883161F784EA8093BC008091BC00E9
:1013300087FFFCCF809100018093BB0084E88093FD
:10134000BC008091BC0087FFFCCF7093BB0084E899
:101350008093BC008091BC0087FFFCCF6093BB00F2
:1013600084E88093BC008091BC0087FFFCCF409351
:10137000BB0084E88093BC008091BC0087FFFCCF59
:1013800084E98093BC0080E00895FB01260F372F8D
:10139000311DDC018C918150990B862B9F2B2817D6
:1013A000390718F09C012F5F3F4F822F8E1B24EAD4
:1013B00034E82093BC009091BC0097FFFCCF909143
:1013C00000019093BB003093BC009091BC0097FF4C
:1013D000FCCF9091B900983161F794EA9093BC00EA
:1013E0009091BC0097FFFCCF909100019093BB00BF
:1013F00094E89093BC009091BC0097FFFCCFF093D1
:10140000BB0094E89093BC009091BC0097FFFCCF88
:10141000E093BB0094E89093BC009091BC0097FFD0
:10142000FCCF982F24E8911104C094E99093BC005C
:101430000895FA0131913093BB002093BC003091A4
:10144000BC0037FFFCCF9150AF01EDCFDF92EF92A0
:10145000FF920F931F93CF93DF93D82ED92F7B0149
:101460008A01C22F2C2FA801B7018D2D9D2F0E941C
:10147000C509282F30E0E20EF31EC81B020F131F10
:10148000C111F0CF80E0DF91CF911F910F91FF90BC
:10149000EF90DF900895FC018FEF80838AE090E069
:1014A0009283818388EC838382E3848384EB8583C6
:1014B00080E5868386E9878384E680878AB1806FAA
:1014C0008AB981EF8093800082E0809381008FEF62
:1014D00090E0909389008093880090938B00809394
:1014E0008A0008959B0177FF02C030E020E0253696
:1014F000310514F024E630E04FEF429FC001439FD6
:10150000900D11246CE97FEF0E94CB0C8FEF860FBA
:1015100008958DE490E0909389008093880089E39A
:1015200090E090938B0080938A0089EF90E0019780
:10153000F1F700C000000895CF93DF9300D000D0F2
:10154000CDB7DEB75E985F9870E00E94720A90E0B7
:1015500090938900809388009C01990F440B550B50
:1015600029833A834B835C83CA01B9010E94240D0D
:101570002AE939E949E55FE369837A838B839C83B0
:1015800069817A818B819C810E94880D69837A832D
:101590008B839C8369817A818B819C810E94F30C6F
:1015A000462F572F50938B0040938A000F900F9037
:1015B0000F900F90DF91CF910895FC01808190E012
:1015C000909389008093880090938B0080938A0089
:1015D0000895CF93DF9300D000D0CDB7DEB79C0144
:1015E0009BB19F6B9BB99BB19F679BB970E0C90191
:1015F0000E94720A90E090938900809388009C0179
:10160000990F440B550B29833A834B835C83CA01A2
:10161000B9010E94240D2AE939E949E55FE36983AC
:101620007A838B839C8369817A818B819C810E94E0
:10163000880D69837A838B839C8369817A818B810E
:101640009C810E94F30C462F572F50938B004093A0
:101650008A000F900F900F900F90DF91CF91089517
:101660001F93CF93DF9300D000D00F92CDB7DEB79A
:10167000182F9D8349835E985F9870E09D810E943A
:10168000720A90E090938900809388002981622FEC
:1016900070E0812F9D810E94720A282F30E050E077
:1016A00040E029833A834B835C83CA01B9010E94DD
:1016B000240D2AE939E949E55FE369837A838B835D
:1016C0009C8369817A818B819C810E94880D6983CA
:1016D0007A838B839C8369817A818B819C810E9430
:1016E000F30C462F572F50938B0040938A000F9096
:1016F0000F900F900F900F90DF91CF911F91089551
:101700001F93CF93DF9300D000D00F92CDB7DEB7F9
:10171000182F9D8349838BB18F6B8BB98BB18F67EA
:101720008BB970E0812F9D810E94720A90E09093A6
:101730008900809388002981622F70E0812F9D812C
:101740000E94720A282F30E050E040E029833A835B
:101750004B835C83CA01B9010E94240D2AE939E94F
:1017600049E55FE369837A838B839C8369817A810E
:101770008B819C810E94880D69837A838B839C83F3
:1017800069817A818B819C810E94F30C462F572FAF
:1017900050938B0040938A000F900F900F900F9002
:1017A0000F90DF91CF911F910895CF93DF93EC01BC
:1017B0004C816B810E94300B27E488EE91E0215030
:1017C00080409040E1F700C00000CE01DF91CF9152
:1017D0000C94DD0A08950895089508959C018AE403
:1017E000E6E0F1E0D90101900D928A95E1F7265BE0
:1017F0003F4FF90111821082239A84B5826484BD1F
:1018000085B5846085BD08952A9A6D52770B660F61
:10181000771F860F971FFC01808187BD0895FC010B
:10182000E65BFF4F808187BD08951092C5008FEC65
:101830008093C400E1ECF0E0808188618083E2EC79
:10184000F0E080818660808308950C94150C80916F
:10185000C00085FFFCCF6093C60008958091C00052
:1018600085FFFCCF6093C6000895CF92DF92EF9280
:10187000FF920F931F93CF93DF93D82EC92E8A0127
:10188000EB01F12CE12CE016F1064CF0DF91CF9149
:101890001F910F91FF90EF90DF90CF900895699185
:1018A0008D2D9C2D0E94270C8FEFE81AF80AEBCFA4
:1018B0008091C00087FFFCCF8091C6000895CDB70E
:1018C000DEB7C75CD1090FB6F894DEBF0FBECDBF3F
:1018D0001A8219828DE28B8380E58C831F821E829F
:1018E000188685E0E1E0F1E0DE01199601900D92A5
:1018F0008A95E1F7CE010F960E946207CE014296CB
:101900000E944B0ACE014B960E94EE0BCE018959E4
:101910009F4F0E943607CE0188599F4F0E94250C89
:10192000CE0187599F4F0E94A60885E0E1E0F1E0D3
:10193000DE01A659BF4F01900D928A95E1F7CE01C5
:101940008C539F4F0E946207CE0185549F4F0E9487
:101950004B0ACE0189539F4F0E94250CCE0181591D
:101960009F4F0E94EE0BCE0101960E942F07CE01E1
:1019700087599F4F0E949C08CE0189599F4F0E9412
:101980003C0790E080E0C953DF4F0FB6F894DEBF0C
:101990000FBECDBF089597FB072E16F4009407D015
:1019A00077FD09D00E94DF0C07FC05D03EF490952E
:1019B00081959F4F0895709561957F4F0895AA1B5B
:1019C000BB1B51E107C0AA1FBB1FA617B70710F02A
:1019D000A61BB70B881F991F5A95A9F7809590955C
:1019E000BC01CD0108950E94670D88F09F5798F0C3
:1019F000B92F9927B751B0F0E1F0660F771F881F14
:101A0000991F1AF0BA95C9F714C0B13091F00E942D
:101A1000810DB1E008950C94810D672F782F8827F0
:101A2000B85F39F0B93FCCF3869577956795B39554
:101A3000D9F73EF490958095709561957F4F8F4FC3
:101A40009F4F0895E89409C097FB3EF490958095C8
:101A5000709561957F4F8F4F9F4F9923A9F0F92F74
:101A600096E9BB279395F695879577956795B795F2
:101A7000F111F8CFFAF4BB0F11F460FF1BC06F5FD8
:101A80007F4F8F4F9F4F16C0882311F096E911C0EA
:101A9000772321F09EE8872F762F05C0662371F00B
:101AA00096E8862F70E060E02AF09A95660F771F1F
:101AB000881FDAF7880F9695879597F9089557FD4F
:101AC0009058440F551F59F05F3F71F04795880FAC
:101AD00097FB991F61F09F3F79F087950895121643
:101AE00013061406551FF2CF4695F1DF08C01616EF
:101AF00017061806991FF1CF8695710561050894A0
:101B00000895E894BB2766277727CB0197F90895B6
:101B10000E949B0D0C940C0E0E94FE0D38F00E944A
:101B2000050E20F0952311F00C94F50D0C94FB0D8F
:101B300011240C94820D0E945F0D70F3959FC1F3E8
:101B4000950F50E0551F629FF001729FBB27F00D6B
:101B5000B11D639FAA27F00DB11DAA1F649F6627C0
:101B6000B00DA11D661F829F2227B00DA11D621F0F
:101B7000739FB00DA11D621F839FA00D611D221FC9
:101B8000749F3327A00D611D231F849F600D211DAD
:101B9000822F762F6A2F11249F5750409AF0F1F030
:101BA00088234AF0EE0FFF1FBB1F661F771F881F99
:101BB00091505040A9F79E3F510580F00C94F50DCF
:101BC0000C94820D5F3FE4F3983ED4F386957795AD
:101BD0006795B795F795E7959F5FC1F7FE2B880F3F
:101BE000911D9695879597F9089597F99F6780E8D5
:101BF00070E060E008959FEF80EC089500240A945F
:101C00001616170618060906089500240A941216D7
:101C10001306140605060895092E0394000C11F40A
:101C2000882352F0BB0F40F4BF2B11F460FF04C0B7
:0E1C30006F5F7F4F8F4F9F4F0895F894FFCF47
:101C3E00A00408102080C011C110D10FED0E170E98
:101C4E004C0D8D0CD90B300B8E0AF6096709E00886
:101C5E006008E80776070B07A6064606EC0597050B
:101C6E004605FB04B3046F043004F303BB03850382
:101C7E0052032303F502CB02A3027D02590238025E
:00000001FF
